{
  "contractName": "Staking",
  "abi": [
    {
      "anonymous": false,
      "inputs": [
        {
          "indexed": true,
          "internalType": "address",
          "name": "user",
          "type": "address"
        },
        {
          "indexed": true,
          "internalType": "address",
          "name": "tokenAddress",
          "type": "address"
        },
        {
          "indexed": false,
          "internalType": "uint256",
          "name": "amount",
          "type": "uint256"
        }
      ],
      "name": "Deposit",
      "type": "event"
    },
    {
      "anonymous": false,
      "inputs": [
        {
          "indexed": true,
          "internalType": "address",
          "name": "user",
          "type": "address"
        },
        {
          "indexed": true,
          "internalType": "address",
          "name": "tokenAddress",
          "type": "address"
        },
        {
          "indexed": false,
          "internalType": "uint256",
          "name": "amount",
          "type": "uint256"
        }
      ],
      "name": "EmergencyWithdraw",
      "type": "event"
    },
    {
      "anonymous": false,
      "inputs": [
        {
          "indexed": true,
          "internalType": "address",
          "name": "caller",
          "type": "address"
        },
        {
          "indexed": true,
          "internalType": "uint128",
          "name": "epochId",
          "type": "uint128"
        },
        {
          "indexed": false,
          "internalType": "address[]",
          "name": "tokens",
          "type": "address[]"
        }
      ],
      "name": "ManualEpochInit",
      "type": "event"
    },
    {
      "anonymous": false,
      "inputs": [
        {
          "indexed": true,
          "internalType": "address",
          "name": "user",
          "type": "address"
        },
        {
          "indexed": true,
          "internalType": "address",
          "name": "tokenAddress",
          "type": "address"
        },
        {
          "indexed": false,
          "internalType": "uint256",
          "name": "amount",
          "type": "uint256"
        }
      ],
      "name": "Withdraw",
      "type": "event"
    },
    {
      "inputs": [],
      "name": "epoch1Start",
      "outputs": [
        {
          "internalType": "uint256",
          "name": "",
          "type": "uint256"
        }
      ],
      "stateMutability": "view",
      "type": "function",
      "constant": true
    },
    {
      "inputs": [],
      "name": "epochDuration",
      "outputs": [
        {
          "internalType": "uint256",
          "name": "",
          "type": "uint256"
        }
      ],
      "stateMutability": "view",
      "type": "function",
      "constant": true
    },
    {
      "inputs": [
        {
          "internalType": "uint256",
          "name": "_epoch1Start",
          "type": "uint256"
        },
        {
          "internalType": "uint256",
          "name": "_epochDuration",
          "type": "uint256"
        }
      ],
      "name": "initialize",
      "outputs": [],
      "stateMutability": "nonpayable",
      "type": "function"
    },
    {
      "inputs": [
        {
          "internalType": "address",
          "name": "tokenAddress",
          "type": "address"
        },
        {
          "internalType": "uint256",
          "name": "amount",
          "type": "uint256"
        }
      ],
      "name": "deposit",
      "outputs": [],
      "stateMutability": "nonpayable",
      "type": "function"
    },
    {
      "inputs": [
        {
          "internalType": "address",
          "name": "tokenAddress",
          "type": "address"
        },
        {
          "internalType": "uint256",
          "name": "amount",
          "type": "uint256"
        }
      ],
      "name": "withdraw",
      "outputs": [],
      "stateMutability": "nonpayable",
      "type": "function"
    },
    {
      "inputs": [
        {
          "internalType": "address[]",
          "name": "tokens",
          "type": "address[]"
        },
        {
          "internalType": "uint128",
          "name": "epochId",
          "type": "uint128"
        }
      ],
      "name": "manualEpochInit",
      "outputs": [],
      "stateMutability": "nonpayable",
      "type": "function"
    },
    {
      "inputs": [
        {
          "internalType": "address",
          "name": "tokenAddress",
          "type": "address"
        }
      ],
      "name": "emergencyWithdraw",
      "outputs": [],
      "stateMutability": "nonpayable",
      "type": "function"
    },
    {
      "inputs": [
        {
          "internalType": "address",
          "name": "user",
          "type": "address"
        },
        {
          "internalType": "address",
          "name": "token",
          "type": "address"
        },
        {
          "internalType": "uint128",
          "name": "epochId",
          "type": "uint128"
        }
      ],
      "name": "getEpochUserBalance",
      "outputs": [
        {
          "internalType": "uint256",
          "name": "",
          "type": "uint256"
        }
      ],
      "stateMutability": "view",
      "type": "function",
      "constant": true
    },
    {
      "inputs": [
        {
          "internalType": "address",
          "name": "user",
          "type": "address"
        },
        {
          "internalType": "address",
          "name": "token",
          "type": "address"
        }
      ],
      "name": "balanceOf",
      "outputs": [
        {
          "internalType": "uint256",
          "name": "",
          "type": "uint256"
        }
      ],
      "stateMutability": "view",
      "type": "function",
      "constant": true
    },
    {
      "inputs": [],
      "name": "getCurrentEpoch",
      "outputs": [
        {
          "internalType": "uint128",
          "name": "",
          "type": "uint128"
        }
      ],
      "stateMutability": "view",
      "type": "function",
      "constant": true
    },
    {
      "inputs": [
        {
          "internalType": "address",
          "name": "tokenAddress",
          "type": "address"
        },
        {
          "internalType": "uint128",
          "name": "epochId",
          "type": "uint128"
        }
      ],
      "name": "getEpochPoolSize",
      "outputs": [
        {
          "internalType": "uint256",
          "name": "",
          "type": "uint256"
        }
      ],
      "stateMutability": "view",
      "type": "function",
      "constant": true
    },
    {
      "inputs": [],
      "name": "currentEpochMultiplier",
      "outputs": [
        {
          "internalType": "uint128",
          "name": "",
          "type": "uint128"
        }
      ],
      "stateMutability": "view",
      "type": "function",
      "constant": true
    },
    {
      "inputs": [
        {
          "internalType": "uint256",
          "name": "prevBalance",
          "type": "uint256"
        },
        {
          "internalType": "uint128",
          "name": "prevMultiplier",
          "type": "uint128"
        },
        {
          "internalType": "uint256",
          "name": "amount",
          "type": "uint256"
        },
        {
          "internalType": "uint128",
          "name": "currentMultiplier",
          "type": "uint128"
        }
      ],
      "name": "computeNewMultiplier",
      "outputs": [
        {
          "internalType": "uint128",
          "name": "",
          "type": "uint128"
        }
      ],
      "stateMutability": "pure",
      "type": "function",
      "constant": true
    },
    {
      "inputs": [
        {
          "internalType": "address",
          "name": "token",
          "type": "address"
        },
        {
          "internalType": "uint128",
          "name": "epochId",
          "type": "uint128"
        }
      ],
      "name": "epochIsInitialized",
      "outputs": [
        {
          "internalType": "bool",
          "name": "",
          "type": "bool"
        }
      ],
      "stateMutability": "view",
      "type": "function",
      "constant": true
    }
  ],
  "bytecode": "0x608060405234801561001057600080fd5b5061416f806100206000396000f3fe608060405234801561001057600080fd5b50600436106100ea5760003560e01c8063b97dd9e21161008c578063ea2c38ae11610066578063ea2c38ae14610483578063f3fef3a314610557578063f4a4341d146105a5578063f7888aec146105c3576100ea565b8063b97dd9e2146103c7578063ce58a2a814610409578063e4a301161461044b576100ea565b80634ff0876a116100c85780634ff0876a146102595780636ff1c9bc146102775780638c028dd0146102bb578063aa5791541461034f576100ea565b80632ca32d7e146100ef57806347e7ef24146101635780634be41dba146101b1575b600080fd5b61014d6004803603604081101561010557600080fd5b81019080803573ffffffffffffffffffffffffffffffffffffffff16906020019092919080356fffffffffffffffffffffffffffffffff16906020019092919050505061063b565b6040518082815260200191505060405180910390f35b6101af6004803603604081101561017957600080fd5b81019080803573ffffffffffffffffffffffffffffffffffffffff16906020019092919080359060200190929190505050610798565b005b61021f600480360360808110156101c757600080fd5b810190808035906020019092919080356fffffffffffffffffffffffffffffffff1690602001909291908035906020019092919080356fffffffffffffffffffffffffffffffff169060200190929190505050611d61565b60405180826fffffffffffffffffffffffffffffffff166fffffffffffffffffffffffffffffffff16815260200191505060405180910390f35b610261611e81565b6040518082815260200191505060405180910390f35b6102b96004803603602081101561028d57600080fd5b81019080803573ffffffffffffffffffffffffffffffffffffffff169060200190929190505050611e87565b005b610339600480360360608110156102d157600080fd5b81019080803573ffffffffffffffffffffffffffffffffffffffff169060200190929190803573ffffffffffffffffffffffffffffffffffffffff16906020019092919080356fffffffffffffffffffffffffffffffff169060200190929190505050612202565b6040518082815260200191505060405180910390f35b6103ad6004803603604081101561036557600080fd5b81019080803573ffffffffffffffffffffffffffffffffffffffff16906020019092919080356fffffffffffffffffffffffffffffffff1690602001909291905050506125ce565b604051808215151515815260200191505060405180910390f35b6103cf61264b565b60405180826fffffffffffffffffffffffffffffffff166fffffffffffffffffffffffffffffffff16815260200191505060405180910390f35b610411612679565b60405180826fffffffffffffffffffffffffffffffff166fffffffffffffffffffffffffffffffff16815260200191505060405180910390f35b6104816004803603604081101561046157600080fd5b8101908080359060200190929190803590602001909291905050506126e2565b005b6105556004803603604081101561049957600080fd5b81019080803590602001906401000000008111156104b657600080fd5b8201836020820111156104c857600080fd5b803590602001918460208302840111640100000000831117156104ea57600080fd5b919080806020026020016040519081016040528093929190818152602001838360200280828437600081840152601f19601f82011690508083019250505050505050919291929080356fffffffffffffffffffffffffffffffff1690602001909291905050506127e2565b005b6105a36004803603604081101561056d57600080fd5b81019080803573ffffffffffffffffffffffffffffffffffffffff16906020019092919080359060200190929190505050612b91565b005b6105ad613c14565b6040518082815260200191505060405180910390f35b610625600480360360408110156105d957600080fd5b81019080803573ffffffffffffffffffffffffffffffffffffffff169060200190929190803573ffffffffffffffffffffffffffffffffffffffff169060200190929190505050613c1a565b6040518082815260200191505060405180910390f35b600061064783836125ce565b156106b957603660008473ffffffffffffffffffffffffffffffffffffffff1673ffffffffffffffffffffffffffffffffffffffff1681526020019081526020016000206000836fffffffffffffffffffffffffffffffff168152602001908152602001600020600001549050610792565b6106c48360006125ce565b6106d15760009050610792565b60008390508073ffffffffffffffffffffffffffffffffffffffff166370a08231306040518263ffffffff1660e01b8152600401808273ffffffffffffffffffffffffffffffffffffffff1673ffffffffffffffffffffffffffffffffffffffff16815260200191505060206040518083038186803b15801561075357600080fd5b505afa158015610767573d6000803e3d6000fd5b505050506040513d602081101561077d57600080fd5b81019080805190602001909291905050509150505b92915050565b60026001541415610811576040517f08c379a000000000000000000000000000000000000000000000000000000000815260040180806020018281038252601f8152602001807f5265656e7472616e637947756172643a207265656e7472616e742063616c6c0081525060200191505060405180910390fd5b60026001819055506000811161088f576040517f08c379a000000000000000000000000000000000000000000000000000000000815260040180806020018281038252601b8152602001807f5374616b696e673a20416d6f756e74206d757374206265203e2030000000000081525060200191505060405180910390fd5b600082905060008173ffffffffffffffffffffffffffffffffffffffff1663dd62ed3e33306040518363ffffffff1660e01b8152600401808373ffffffffffffffffffffffffffffffffffffffff1673ffffffffffffffffffffffffffffffffffffffff1681526020018273ffffffffffffffffffffffffffffffffffffffff1673ffffffffffffffffffffffffffffffffffffffff1681526020019250505060206040518083038186803b15801561094757600080fd5b505afa15801561095b573d6000803e3d6000fd5b505050506040513d602081101561097157600080fd5b81019080805190602001909291905050509050828110156109dd576040517f08c379a00000000000000000000000000000000000000000000000000000000081526004018080602001828103825260228152602001806140a26022913960400191505060405180910390fd5b610a6c83603560003373ffffffffffffffffffffffffffffffffffffffff1673ffffffffffffffffffffffffffffffffffffffff16815260200190815260200160002060008773ffffffffffffffffffffffffffffffffffffffff1673ffffffffffffffffffffffffffffffffffffffff16815260200190815260200160002054613ca190919063ffffffff16565b603560003373ffffffffffffffffffffffffffffffffffffffff1673ffffffffffffffffffffffffffffffffffffffff16815260200190815260200160002060008673ffffffffffffffffffffffffffffffffffffffff1673ffffffffffffffffffffffffffffffffffffffff168152602001908152602001600020819055508173ffffffffffffffffffffffffffffffffffffffff166323b872dd3330866040518463ffffffff1660e01b8152600401808473ffffffffffffffffffffffffffffffffffffffff1673ffffffffffffffffffffffffffffffffffffffff1681526020018373ffffffffffffffffffffffffffffffffffffffff1673ffffffffffffffffffffffffffffffffffffffff1681526020018281526020019350505050602060405180830381600087803b158015610ba757600080fd5b505af1158015610bbb573d6000803e3d6000fd5b505050506040513d6020811015610bd157600080fd5b8101908080519060200190929190505050506000610bed61264b565b90506000610bf9612679565b9050610c0586836125ce565b610c925760606001604051908082528060200260200182016040528015610c3b5781602001602082028038833980820191505090505b5090508681600081518110610c4c57fe5b602002602001019073ffffffffffffffffffffffffffffffffffffffff16908173ffffffffffffffffffffffffffffffffffffffff1681525050610c9081846127e2565b505b6000603660008873ffffffffffffffffffffffffffffffffffffffff1673ffffffffffffffffffffffffffffffffffffffff1681526020019081526020016000206000600185016fffffffffffffffffffffffffffffffff16815260200190815260200160002090508473ffffffffffffffffffffffffffffffffffffffff166370a08231306040518263ffffffff1660e01b8152600401808273ffffffffffffffffffffffffffffffffffffffff1673ffffffffffffffffffffffffffffffffffffffff16815260200191505060206040518083038186803b158015610d7857600080fd5b505afa158015610d8c573d6000803e3d6000fd5b505050506040513d6020811015610da257600080fd5b8101908080519060200190929190505050816000018190555060018160010160006101000a81548160ff0219169083151502179055506000603760003373ffffffffffffffffffffffffffffffffffffffff1673ffffffffffffffffffffffffffffffffffffffff16815260200190815260200160002060008973ffffffffffffffffffffffffffffffffffffffff1673ffffffffffffffffffffffffffffffffffffffff16815260200190815260200160002090506000610e65338a87612202565b905060008280549050141561108c57816040518060800160405280876fffffffffffffffffffffffffffffffff168152602001866fffffffffffffffffffffffffffffffff168152602001600081526020018a815250908060018154018082558091505060019003906000526020600020906003020160009091909190915060008201518160000160006101000a8154816fffffffffffffffffffffffffffffffff02191690836fffffffffffffffffffffffffffffffff16021790555060208201518160000160106101000a8154816fffffffffffffffffffffffffffffffff02191690836fffffffffffffffffffffffffffffffff16021790555060408201518160010155606082015181600201555050816040518060800160405280600188016fffffffffffffffffffffffffffffffff168152602001670de0b6b3a76400006fffffffffffffffffffffffffffffffff1681526020018a81526020016000815250908060018154018082558091505060019003906000526020600020906003020160009091909190915060008201518160000160006101000a8154816fffffffffffffffffffffffffffffffff02191690836fffffffffffffffffffffffffffffffff16021790555060208201518160000160106101000a8154816fffffffffffffffffffffffffffffffff02191690836fffffffffffffffffffffffffffffffff16021790555060408201518160010155606082015181600201555050611be7565b600060018380549050039050856fffffffffffffffffffffffffffffffff168382815481106110b757fe5b906000526020600020906003020160000160009054906101000a90046fffffffffffffffffffffffffffffffff166fffffffffffffffffffffffffffffffff1610156115515760006111e76111d785848154811061111157fe5b90600052602060002090600302016040518060800160405290816000820160009054906101000a90046fffffffffffffffffffffffffffffffff166fffffffffffffffffffffffffffffffff166fffffffffffffffffffffffffffffffff1681526020016000820160109054906101000a90046fffffffffffffffffffffffffffffffff166fffffffffffffffffffffffffffffffff166fffffffffffffffffffffffffffffffff16815260200160018201548152602001600282015481525050613d29565b670de0b6b3a76400008c89611d61565b9050836040518060800160405280896fffffffffffffffffffffffffffffffff168152602001836fffffffffffffffffffffffffffffffff1681526020016112fa87868154811061123457fe5b90600052602060002090600302016040518060800160405290816000820160009054906101000a90046fffffffffffffffffffffffffffffffff166fffffffffffffffffffffffffffffffff166fffffffffffffffffffffffffffffffff1681526020016000820160109054906101000a90046fffffffffffffffffffffffffffffffff166fffffffffffffffffffffffffffffffff166fffffffffffffffffffffffffffffffff16815260200160018201548152602001600282015481525050613d29565b81526020018c815250908060018154018082558091505060019003906000526020600020906003020160009091909190915060008201518160000160006101000a8154816fffffffffffffffffffffffffffffffff02191690836fffffffffffffffffffffffffffffffff16021790555060208201518160000160106101000a8154816fffffffffffffffffffffffffffffffff02191690836fffffffffffffffffffffffffffffffff1602179055506040820151816001015560608201518160020155505083604051806080016040528060018a016fffffffffffffffffffffffffffffffff168152602001670de0b6b3a76400006fffffffffffffffffffffffffffffffff168152602001603560003373ffffffffffffffffffffffffffffffffffffffff1673ffffffffffffffffffffffffffffffffffffffff16815260200190815260200160002060008f73ffffffffffffffffffffffffffffffffffffffff1673ffffffffffffffffffffffffffffffffffffffff1681526020019081526020016000205481526020016000815250908060018154018082558091505060019003906000526020600020906003020160009091909190915060008201518160000160006101000a8154816fffffffffffffffffffffffffffffffff02191690836fffffffffffffffffffffffffffffffff16021790555060208201518160000160106101000a8154816fffffffffffffffffffffffffffffffff02191690836fffffffffffffffffffffffffffffffff1602179055506040820151816001015560608201518160020155505050611be5565b856fffffffffffffffffffffffffffffffff1683828154811061157057fe5b906000526020600020906003020160000160009054906101000a90046fffffffffffffffffffffffffffffffff166fffffffffffffffffffffffffffffffff161415611903576116cf61168e8483815481106115c857fe5b90600052602060002090600302016040518060800160405290816000820160009054906101000a90046fffffffffffffffffffffffffffffffff166fffffffffffffffffffffffffffffffff166fffffffffffffffffffffffffffffffff1681526020016000820160109054906101000a90046fffffffffffffffffffffffffffffffff166fffffffffffffffffffffffffffffffff166fffffffffffffffffffffffffffffffff16815260200160018201548152602001600282015481525050613d29565b84838154811061169a57fe5b906000526020600020906003020160000160109054906101000a90046fffffffffffffffffffffffffffffffff168b88611d61565b8382815481106116db57fe5b906000526020600020906003020160000160106101000a8154816fffffffffffffffffffffffffffffffff02191690836fffffffffffffffffffffffffffffffff1602179055506117528984838154811061173257fe5b906000526020600020906003020160020154613ca190919063ffffffff16565b83828154811061175e57fe5b906000526020600020906003020160020181905550826040518060800160405280600189016fffffffffffffffffffffffffffffffff168152602001670de0b6b3a76400006fffffffffffffffffffffffffffffffff168152602001603560003373ffffffffffffffffffffffffffffffffffffffff1673ffffffffffffffffffffffffffffffffffffffff16815260200190815260200160002060008e73ffffffffffffffffffffffffffffffffffffffff1673ffffffffffffffffffffffffffffffffffffffff1681526020019081526020016000205481526020016000815250908060018154018082558091505060019003906000526020600020906003020160009091909190915060008201518160000160006101000a8154816fffffffffffffffffffffffffffffffff02191690836fffffffffffffffffffffffffffffffff16021790555060208201518160000160106101000a8154816fffffffffffffffffffffffffffffffff02191690836fffffffffffffffffffffffffffffffff16021790555060408201518160010155606082015181600201555050611be4565b600181101580156119735750856fffffffffffffffffffffffffffffffff1683600183038154811061193157fe5b906000526020600020906003020160000160009054906101000a90046fffffffffffffffffffffffffffffffff166fffffffffffffffffffffffffffffffff16145b15611b4557611a97611a5384600184038154811061198d57fe5b90600052602060002090600302016040518060800160405290816000820160009054906101000a90046fffffffffffffffffffffffffffffffff166fffffffffffffffffffffffffffffffff166fffffffffffffffffffffffffffffffff1681526020016000820160109054906101000a90046fffffffffffffffffffffffffffffffff166fffffffffffffffffffffffffffffffff166fffffffffffffffffffffffffffffffff16815260200160018201548152602001600282015481525050613d29565b846001840381548110611a6257fe5b906000526020600020906003020160000160109054906101000a90046fffffffffffffffffffffffffffffffff168b88611d61565b836001830381548110611aa657fe5b906000526020600020906003020160000160106101000a8154816fffffffffffffffffffffffffffffffff02191690836fffffffffffffffffffffffffffffffff160217905550611b2089846001840381548110611b0057fe5b906000526020600020906003020160020154613ca190919063ffffffff16565b836001830381548110611b2f57fe5b9060005260206000209060030201600201819055505b603560003373ffffffffffffffffffffffffffffffffffffffff1673ffffffffffffffffffffffffffffffffffffffff16815260200190815260200160002060008b73ffffffffffffffffffffffffffffffffffffffff1673ffffffffffffffffffffffffffffffffffffffff16815260200190815260200160002054838281548110611bce57fe5b9060005260206000209060030201600101819055505b5b505b6000611bf4338b88612202565b9050611c80611c0c8383613d4d90919063ffffffff16565b603660008d73ffffffffffffffffffffffffffffffffffffffff1673ffffffffffffffffffffffffffffffffffffffff1681526020019081526020016000206000896fffffffffffffffffffffffffffffffff16815260200190815260200160002060000154613ca190919063ffffffff16565b603660008c73ffffffffffffffffffffffffffffffffffffffff1673ffffffffffffffffffffffffffffffffffffffff1681526020019081526020016000206000886fffffffffffffffffffffffffffffffff168152602001908152602001600020600001819055508973ffffffffffffffffffffffffffffffffffffffff163373ffffffffffffffffffffffffffffffffffffffff167f5548c837ab068cf56a2c2479df0882a4922fd203edb7517321831d95078c5f628b6040518082815260200191505060405180910390a35050505050505050600180819055505050565b600080611db5670de0b6b3a76400006fffffffffffffffffffffffffffffffff16611da7876fffffffffffffffffffffffffffffffff1689613d9790919063ffffffff16565b613e1d90919063ffffffff16565b90506000611e0a670de0b6b3a76400006fffffffffffffffffffffffffffffffff16611dfc866fffffffffffffffffffffffffffffffff1688613d9790919063ffffffff16565b613e1d90919063ffffffff16565b90506000611e71611e24878a613ca190919063ffffffff16565b611e63670de0b6b3a76400006fffffffffffffffffffffffffffffffff16611e558688613ca190919063ffffffff16565b613d9790919063ffffffff16565b613e1d90919063ffffffff16565b9050809350505050949350505050565b60345481565b600a603860008373ffffffffffffffffffffffffffffffffffffffff1673ffffffffffffffffffffffffffffffffffffffff16815260200190815260200160002060009054906101000a90046fffffffffffffffffffffffffffffffff16611eed61264b565b036fffffffffffffffffffffffffffffffff161015611f57576040517f08c379a000000000000000000000000000000000000000000000000000000000815260040180806020018281038252602c815260200180614054602c913960400191505060405180910390fd5b6000603560003373ffffffffffffffffffffffffffffffffffffffff1673ffffffffffffffffffffffffffffffffffffffff16815260200190815260200160002060008373ffffffffffffffffffffffffffffffffffffffff1673ffffffffffffffffffffffffffffffffffffffff1681526020019081526020016000205490506000811161204e576040517f08c379a00000000000000000000000000000000000000000000000000000000081526004018080602001828103825260128152602001807f416d6f756e74206d757374206265203e2030000000000000000000000000000081525060200191505060405180910390fd5b6000603560003373ffffffffffffffffffffffffffffffffffffffff1673ffffffffffffffffffffffffffffffffffffffff16815260200190815260200160002060008473ffffffffffffffffffffffffffffffffffffffff1673ffffffffffffffffffffffffffffffffffffffff1681526020019081526020016000208190555060008290508073ffffffffffffffffffffffffffffffffffffffff1663a9059cbb33846040518363ffffffff1660e01b8152600401808373ffffffffffffffffffffffffffffffffffffffff1673ffffffffffffffffffffffffffffffffffffffff16815260200182815260200192505050602060405180830381600087803b15801561215c57600080fd5b505af1158015612170573d6000803e3d6000fd5b505050506040513d602081101561218657600080fd5b8101908080519060200190929190505050508273ffffffffffffffffffffffffffffffffffffffff163373ffffffffffffffffffffffffffffffffffffffff167ff24ef89f38eadc1bde50701ad6e4d6d11a2dc24f7cf834a486991f3883328504846040518082815260200191505060405180910390a3505050565b600080603760008673ffffffffffffffffffffffffffffffffffffffff1673ffffffffffffffffffffffffffffffffffffffff16815260200190815260200160002060008573ffffffffffffffffffffffffffffffffffffffff1673ffffffffffffffffffffffffffffffffffffffff16815260200190815260200160002090506000818054905014806122f357508060008154811061229e57fe5b906000526020600020906003020160000160009054906101000a90046fffffffffffffffffffffffffffffffff166fffffffffffffffffffffffffffffffff16836fffffffffffffffffffffffffffffffff16105b156123025760009150506125c7565b600080905060006001838054905003905082818154811061231f57fe5b906000526020600020906003020160000160009054906101000a90046fffffffffffffffffffffffffffffffff166fffffffffffffffffffffffffffffffff16856fffffffffffffffffffffffffffffffff16106124565761244c83828154811061238657fe5b90600052602060002090600302016040518060800160405290816000820160009054906101000a90046fffffffffffffffffffffffffffffffff166fffffffffffffffffffffffffffffffff166fffffffffffffffffffffffffffffffff1681526020016000820160109054906101000a90046fffffffffffffffffffffffffffffffff166fffffffffffffffffffffffffffffffff166fffffffffffffffffffffffffffffffff16815260200160018201548152602001600282015481525050613e67565b93505050506125c7565b5b818111156124ec57600060026001848401018161247057fe5b049050856fffffffffffffffffffffffffffffffff1684828154811061249257fe5b906000526020600020906003020160000160009054906101000a90046fffffffffffffffffffffffffffffffff166fffffffffffffffffffffffffffffffff16116124df578092506124e6565b6001810391505b50612457565b6125c18383815481106124fb57fe5b90600052602060002090600302016040518060800160405290816000820160009054906101000a90046fffffffffffffffffffffffffffffffff166fffffffffffffffffffffffffffffffff166fffffffffffffffffffffffffffffffff1681526020016000820160109054906101000a90046fffffffffffffffffffffffffffffffff166fffffffffffffffffffffffffffffffff166fffffffffffffffffffffffffffffffff16815260200160018201548152602001600282015481525050613e67565b93505050505b9392505050565b6000603660008473ffffffffffffffffffffffffffffffffffffffff1673ffffffffffffffffffffffffffffffffffffffff1681526020019081526020016000206000836fffffffffffffffffffffffffffffffff16815260200190815260200160002060010160009054906101000a900460ff16905092915050565b60006033544210156126605760009050612676565b600160345460335442038161267157fe5b040190505b90565b60008061268461264b565b90506000603454826fffffffffffffffffffffffffffffffff1602603354019050600042820390506000603454670de0b6b3a76400006fffffffffffffffffffffffffffffffff168302816126d557fe5b0490508094505050505090565b600060019054906101000a900460ff168061270957506000809054906101000a900460ff16155b61275e576040517f08c379a000000000000000000000000000000000000000000000000000000000815260040180806020018281038252602e8152602001806140c4602e913960400191505060405180910390fd5b60008060019054906101000a900460ff1615905080156127ae576001600060016101000a81548160ff02191690831515021790555060016000806101000a81548160ff0219169083151502179055505b826033819055508160348190555080156127dd5760008060016101000a81548160ff0219169083151502179055505b505050565b6127ea61264b565b6fffffffffffffffffffffffffffffffff16816fffffffffffffffffffffffffffffffff161115612883576040517f08c379a00000000000000000000000000000000000000000000000000000000081526004018080602001828103825260198152602001807f63616e277420696e69742061206675747572652065706f63680000000000000081525060200191505060405180910390fd5b60008090505b8251811015612aea576000603660008584815181106128a457fe5b602002602001015173ffffffffffffffffffffffffffffffffffffffff1673ffffffffffffffffffffffffffffffffffffffff1681526020019081526020016000206000846fffffffffffffffffffffffffffffffff16815260200190815260200160002090506000836fffffffffffffffffffffffffffffffff161415612952576000816000018190555060018160010160006101000a81548160ff021916908315150217905550612adc565b61296f84838151811061296157fe5b6020026020010151846125ce565b156129c5576040517f08c379a00000000000000000000000000000000000000000000000000000000081526004018080602001828103825260228152602001806140806022913960400191505060405180910390fd5b6129e58483815181106129d457fe5b6020026020010151600185036125ce565b612a3a576040517f08c379a00000000000000000000000000000000000000000000000000000000081526004018080602001828103825260278152602001806140f26027913960400191505060405180910390fd5b60366000858481518110612a4a57fe5b602002602001015173ffffffffffffffffffffffffffffffffffffffff1673ffffffffffffffffffffffffffffffffffffffff1681526020019081526020016000206000600185036fffffffffffffffffffffffffffffffff16815260200190815260200160002060000154816000018190555060018160010160006101000a81548160ff0219169083151502179055505b508080600101915050612889565b50806fffffffffffffffffffffffffffffffff163373ffffffffffffffffffffffffffffffffffffffff167fb85c32b8d9cecc81feba78646289584a693e9a8afea40ab2fd31efae4408429f846040518080602001828103825283818151815260200191508051906020019060200280838360005b83811015612b7a578082015181840152602081019050612b5f565b505050509050019250505060405180910390a35050565b60026001541415612c0a576040517f08c379a000000000000000000000000000000000000000000000000000000000815260040180806020018281038252601f8152602001807f5265656e7472616e637947756172643a207265656e7472616e742063616c6c0081525060200191505060405180910390fd5b600260018190555080603560003373ffffffffffffffffffffffffffffffffffffffff1673ffffffffffffffffffffffffffffffffffffffff16815260200190815260200160002060008473ffffffffffffffffffffffffffffffffffffffff1673ffffffffffffffffffffffffffffffffffffffff168152602001908152602001600020541015612d04576040517f08c379a000000000000000000000000000000000000000000000000000000000815260040180806020018281038252601a8152602001807f5374616b696e673a2062616c616e636520746f6f20736d616c6c00000000000081525060200191505060405180910390fd5b612d9381603560003373ffffffffffffffffffffffffffffffffffffffff1673ffffffffffffffffffffffffffffffffffffffff16815260200190815260200160002060008573ffffffffffffffffffffffffffffffffffffffff1673ffffffffffffffffffffffffffffffffffffffff16815260200190815260200160002054613d4d90919063ffffffff16565b603560003373ffffffffffffffffffffffffffffffffffffffff1673ffffffffffffffffffffffffffffffffffffffff16815260200190815260200160002060008473ffffffffffffffffffffffffffffffffffffffff1673ffffffffffffffffffffffffffffffffffffffff1681526020019081526020016000208190555060008290508073ffffffffffffffffffffffffffffffffffffffff1663a9059cbb33846040518363ffffffff1660e01b8152600401808373ffffffffffffffffffffffffffffffffffffffff1673ffffffffffffffffffffffffffffffffffffffff16815260200182815260200192505050602060405180830381600087803b158015612e9f57600080fd5b505af1158015612eb3573d6000803e3d6000fd5b505050506040513d6020811015612ec957600080fd5b8101908080519060200190929190505050506000612ee561264b565b905080603860008673ffffffffffffffffffffffffffffffffffffffff1673ffffffffffffffffffffffffffffffffffffffff16815260200190815260200160002060006101000a8154816fffffffffffffffffffffffffffffffff02191690836fffffffffffffffffffffffffffffffff160217905550612f6784826125ce565b612ff45760606001604051908082528060200260200182016040528015612f9d5781602001602082028038833980820191505090505b5090508481600081518110612fae57fe5b602002602001019073ffffffffffffffffffffffffffffffffffffffff16908173ffffffffffffffffffffffffffffffffffffffff1681525050612ff281836127e2565b505b6000603660008673ffffffffffffffffffffffffffffffffffffffff1673ffffffffffffffffffffffffffffffffffffffff1681526020019081526020016000206000600184016fffffffffffffffffffffffffffffffff16815260200190815260200160002090508273ffffffffffffffffffffffffffffffffffffffff166370a08231306040518263ffffffff1660e01b8152600401808273ffffffffffffffffffffffffffffffffffffffff1673ffffffffffffffffffffffffffffffffffffffff16815260200191505060206040518083038186803b1580156130da57600080fd5b505afa1580156130ee573d6000803e3d6000fd5b505050506040513d602081101561310457600080fd5b8101908080519060200190929190505050816000018190555060018160010160006101000a81548160ff0219169083151502179055506000603760003373ffffffffffffffffffffffffffffffffffffffff1673ffffffffffffffffffffffffffffffffffffffff16815260200190815260200160002060008773ffffffffffffffffffffffffffffffffffffffff1673ffffffffffffffffffffffffffffffffffffffff1681526020019081526020016000209050600060018280549050039050836fffffffffffffffffffffffffffffffff168282815481106131e557fe5b906000526020600020906003020160000160009054906101000a90046fffffffffffffffffffffffffffffffff166fffffffffffffffffffffffffffffffff16101561349957816040518060800160405280866fffffffffffffffffffffffffffffffff168152602001670de0b6b3a76400006fffffffffffffffffffffffffffffffff168152602001603560003373ffffffffffffffffffffffffffffffffffffffff1673ffffffffffffffffffffffffffffffffffffffff16815260200190815260200160002060008b73ffffffffffffffffffffffffffffffffffffffff1673ffffffffffffffffffffffffffffffffffffffff1681526020019081526020016000205481526020016000815250908060018154018082558091505060019003906000526020600020906003020160009091909190915060008201518160000160006101000a8154816fffffffffffffffffffffffffffffffff02191690836fffffffffffffffffffffffffffffffff16021790555060208201518160000160106101000a8154816fffffffffffffffffffffffffffffffff02191690836fffffffffffffffffffffffffffffffff1602179055506040820151816001015560608201518160020155505061342b86603660008a73ffffffffffffffffffffffffffffffffffffffff1673ffffffffffffffffffffffffffffffffffffffff1681526020019081526020016000206000876fffffffffffffffffffffffffffffffff16815260200190815260200160002060000154613d4d90919063ffffffff16565b603660008973ffffffffffffffffffffffffffffffffffffffff1673ffffffffffffffffffffffffffffffffffffffff1681526020019081526020016000206000866fffffffffffffffffffffffffffffffff16815260200190815260200160002060000181905550613b9f565b836fffffffffffffffffffffffffffffffff168282815481106134b857fe5b906000526020600020906003020160000160009054906101000a90046fffffffffffffffffffffffffffffffff166fffffffffffffffffffffffffffffffff16141561370157603560003373ffffffffffffffffffffffffffffffffffffffff1673ffffffffffffffffffffffffffffffffffffffff16815260200190815260200160002060008873ffffffffffffffffffffffffffffffffffffffff1673ffffffffffffffffffffffffffffffffffffffff1681526020019081526020016000205482828154811061358757fe5b90600052602060002090600302016001018190555060008282815481106135aa57fe5b906000526020600020906003020160020181905550670de0b6b3a76400008282815481106135d457fe5b906000526020600020906003020160000160106101000a8154816fffffffffffffffffffffffffffffffff02191690836fffffffffffffffffffffffffffffffff16021790555061369386603660008a73ffffffffffffffffffffffffffffffffffffffff1673ffffffffffffffffffffffffffffffffffffffff1681526020019081526020016000206000876fffffffffffffffffffffffffffffffff16815260200190815260200160002060000154613d4d90919063ffffffff16565b603660008973ffffffffffffffffffffffffffffffffffffffff1673ffffffffffffffffffffffffffffffffffffffff1681526020019081526020016000206000866fffffffffffffffffffffffffffffffff16815260200190815260200160002060000181905550613b9e565b600082600183038154811061371257fe5b9060005260206000209060030201905060006137e0826040518060800160405290816000820160009054906101000a90046fffffffffffffffffffffffffffffffff166fffffffffffffffffffffffffffffffff166fffffffffffffffffffffffffffffffff1681526020016000820160109054906101000a90046fffffffffffffffffffffffffffffffff166fffffffffffffffffffffffffffffffff166fffffffffffffffffffffffffffffffff16815260200160018201548152602001600282015481525050613e67565b905081600201548810156138c6576000613849836002015461383b670de0b6b3a76400006fffffffffffffffffffffffffffffffff1661382d876001015487613d4d90919063ffffffff16565b613d9790919063ffffffff16565b613e1d90919063ffffffff16565b9050613862898460020154613d4d90919063ffffffff16565b83600201819055506138868360010154670de0b6b3a7640000856002015484611d61565b8360000160106101000a8154816fffffffffffffffffffffffffffffffff02191690836fffffffffffffffffffffffffffffffff16021790555050613949565b6138f36138e083600201548a613d4d90919063ffffffff16565b8360010154613d4d90919063ffffffff16565b826001018190555060008260020181905550670de0b6b3a76400008260000160106101000a8154816fffffffffffffffffffffffffffffffff02191690836fffffffffffffffffffffffffffffffff1602179055505b6000613a07836040518060800160405290816000820160009054906101000a90046fffffffffffffffffffffffffffffffff166fffffffffffffffffffffffffffffffff166fffffffffffffffffffffffffffffffff1681526020016000820160109054906101000a90046fffffffffffffffffffffffffffffffff166fffffffffffffffffffffffffffffffff166fffffffffffffffffffffffffffffffff16815260200160018201548152602001600282015481525050613e67565b9050613a93613a1f8284613d4d90919063ffffffff16565b603660008d73ffffffffffffffffffffffffffffffffffffffff1673ffffffffffffffffffffffffffffffffffffffff16815260200190815260200160002060008a6fffffffffffffffffffffffffffffffff16815260200190815260200160002060000154613d4d90919063ffffffff16565b603660008c73ffffffffffffffffffffffffffffffffffffffff1673ffffffffffffffffffffffffffffffffffffffff1681526020019081526020016000206000896fffffffffffffffffffffffffffffffff16815260200190815260200160002060000181905550603560003373ffffffffffffffffffffffffffffffffffffffff1673ffffffffffffffffffffffffffffffffffffffff16815260200190815260200160002060008b73ffffffffffffffffffffffffffffffffffffffff1673ffffffffffffffffffffffffffffffffffffffff16815260200190815260200160002054858581548110613b8557fe5b9060005260206000209060030201600101819055505050505b5b8673ffffffffffffffffffffffffffffffffffffffff163373ffffffffffffffffffffffffffffffffffffffff167f9b1bfa7fa9ee420a16e124f794c35ac9f90472acc99140eb2f6447c714cad8eb886040518082815260200191505060405180910390a35050505050600180819055505050565b60335481565b6000603560008473ffffffffffffffffffffffffffffffffffffffff1673ffffffffffffffffffffffffffffffffffffffff16815260200190815260200160002060008373ffffffffffffffffffffffffffffffffffffffff1673ffffffffffffffffffffffffffffffffffffffff16815260200190815260200160002054905092915050565b600080828401905083811015613d1f576040517f08c379a000000000000000000000000000000000000000000000000000000000815260040180806020018281038252601b8152602001807f536166654d6174683a206164646974696f6e206f766572666c6f77000000000081525060200191505060405180910390fd5b8091505092915050565b6000613d4682606001518360400151613ca190919063ffffffff16565b9050919050565b6000613d8f83836040518060400160405280601e81526020017f536166654d6174683a207375627472616374696f6e206f766572666c6f770000815250613ecd565b905092915050565b600080831415613daa5760009050613e17565b6000828402905082848281613dbb57fe5b0414613e12576040517f08c379a00000000000000000000000000000000000000000000000000000000081526004018080602001828103825260218152602001806141196021913960400191505060405180910390fd5b809150505b92915050565b6000613e5f83836040518060400160405280601a81526020017f536166654d6174683a206469766973696f6e206279207a65726f000000000000815250613f8d565b905092915050565b6000613ec6670de0b6b3a76400006fffffffffffffffffffffffffffffffff16613eb884602001516fffffffffffffffffffffffffffffffff16613eaa86613d29565b613d9790919063ffffffff16565b613e1d90919063ffffffff16565b9050919050565b6000838311158290613f7a576040517f08c379a00000000000000000000000000000000000000000000000000000000081526004018080602001828103825283818151815260200191508051906020019080838360005b83811015613f3f578082015181840152602081019050613f24565b50505050905090810190601f168015613f6c5780820380516001836020036101000a031916815260200191505b509250505060405180910390fd5b5060008385039050809150509392505050565b60008083118290614039576040517f08c379a00000000000000000000000000000000000000000000000000000000081526004018080602001828103825283818151815260200191508051906020019080838360005b83811015613ffe578082015181840152602081019050613fe3565b50505050905090810190601f16801561402b5780820380516001836020036101000a031916815260200191505b509250505060405180910390fd5b50600083858161404557fe5b04905080915050939250505056fe4174206c656173742031302065706f636873206d757374207061737320776974686f757420737563636573735374616b696e673a2065706f636820616c726561647920696e697469616c697a65645374616b696e673a20546f6b656e20616c6c6f77616e636520746f6f20736d616c6c496e697469616c697a61626c653a20636f6e747261637420697320616c726561647920696e697469616c697a65645374616b696e673a2070726576696f75732065706f6368206e6f7420696e697469616c697a6564536166654d6174683a206d756c7469706c69636174696f6e206f766572666c6f77a26469706673582212204d580cc8845976cfe7fb4366df617f3fe2b211097769626b93c6e1ccb44a4cc864736f6c63430006000033",
  "source": "/**\n *Submitted for verification at Etherscan.io on 2021-02-21\n*/\n\n// SPDX-License-Identifier: Apache-2.0\npragma solidity ^0.6.0;\n\ncontract Initializable {\n\n    /**\n     * @dev Indicates that the contract has been initialized.\n     */\n    bool private _initialized;\n\n    /**\n     * @dev Indicates that the contract is in the process of being initialized.\n     */\n    bool private _initializing;\n\n    /**\n     * @dev Modifier to protect an initializer function from being invoked twice.\n     */\n    modifier initializer() {\n        require(_initializing || !_initialized, \"Initializable: contract is already initialized\");\n\n        bool isTopLevelCall = !_initializing;\n        if (isTopLevelCall) {\n            _initializing = true;\n            _initialized = true;\n        }\n\n        _;\n\n        if (isTopLevelCall) {\n            _initializing = false;\n        }\n    }\n}\n/**\n * @dev Interface of the ERC20 standard as defined in the EIP.\n */\ninterface IERC20 {\n    /**\n     * @dev Returns the amount of tokens in existence.\n     */\n    function totalSupply() external view returns (uint256);\n\n    /**\n     * @dev Returns the amount of tokens owned by `account`.\n     */\n    function balanceOf(address account) external view returns (uint256);\n\n    /**\n     * @dev Moves `amount` tokens from the caller's account to `recipient`.\n     *\n     * Returns a boolean value indicating whether the operation succeeded.\n     *\n     * Emits a {Transfer} event.\n     */\n    function transfer(address recipient, uint256 amount) external returns (bool);\n\n    /**\n     * @dev Returns the remaining number of tokens that `spender` will be\n     * allowed to spend on behalf of `owner` through {transferFrom}. This is\n     * zero by default.\n     *\n     * This value changes when {approve} or {transferFrom} are called.\n     */\n    function allowance(address owner, address spender) external view returns (uint256);\n\n    /**\n     * @dev Sets `amount` as the allowance of `spender` over the caller's tokens.\n     *\n     * Returns a boolean value indicating whether the operation succeeded.\n     *\n     * IMPORTANT: Beware that changing an allowance with this method brings the risk\n     * that someone may use both the old and the new allowance by unfortunate\n     * transaction ordering. One possible solution to mitigate this race\n     * condition is to first reduce the spender's allowance to 0 and set the\n     * desired value afterwards:\n     * https://github.com/ethereum/EIPs/issues/20#issuecomment-263524729\n     *\n     * Emits an {Approval} event.\n     */\n    function approve(address spender, uint256 amount) external returns (bool);\n\n    /**\n     * @dev Moves `amount` tokens from `sender` to `recipient` using the\n     * allowance mechanism. `amount` is then deducted from the caller's\n     * allowance.\n     *\n     * Returns a boolean value indicating whether the operation succeeded.\n     *\n     * Emits a {Transfer} event.\n     */\n    function transferFrom(address sender, address recipient, uint256 amount) external returns (bool);\n\n    /**\n     * @dev Emitted when `value` tokens are moved from one account (`from`) to\n     * another (`to`).\n     *\n     * Note that `value` may be zero.\n     */\n    event Transfer(address indexed from, address indexed to, uint256 value);\n\n    /**\n     * @dev Emitted when the allowance of a `spender` for an `owner` is set by\n     * a call to {approve}. `value` is the new allowance.\n     */\n    event Approval(address indexed owner, address indexed spender, uint256 value);\n}\n\n/**\n * @dev Wrappers over Solidity's arithmetic operations with added overflow\n * checks.\n *\n * Arithmetic operations in Solidity wrap on overflow. This can easily result\n * in bugs, because programmers usually assume that an overflow raises an\n * error, which is the standard behavior in high level programming languages.\n * `SafeMath` restores this intuition by reverting the transaction when an\n * operation overflows.\n *\n * Using this library instead of the unchecked operations eliminates an entire\n * class of bugs, so it's recommended to use it always.\n */\nlibrary SafeMath {\n    /**\n     * @dev Returns the addition of two unsigned integers, reverting on\n     * overflow.\n     *\n     * Counterpart to Solidity's `+` operator.\n     *\n     * Requirements:\n     *\n     * - Addition cannot overflow.\n     */\n    function add(uint256 a, uint256 b) internal pure returns (uint256) {\n        uint256 c = a + b;\n        require(c >= a, \"SafeMath: addition overflow\");\n\n        return c;\n    }\n\n    /**\n     * @dev Returns the subtraction of two unsigned integers, reverting on\n     * overflow (when the result is negative).\n     *\n     * Counterpart to Solidity's `-` operator.\n     *\n     * Requirements:\n     *\n     * - Subtraction cannot overflow.\n     */\n    function sub(uint256 a, uint256 b) internal pure returns (uint256) {\n        return sub(a, b, \"SafeMath: subtraction overflow\");\n    }\n\n    /**\n     * @dev Returns the subtraction of two unsigned integers, reverting with custom message on\n     * overflow (when the result is negative).\n     *\n     * Counterpart to Solidity's `-` operator.\n     *\n     * Requirements:\n     *\n     * - Subtraction cannot overflow.\n     */\n    function sub(uint256 a, uint256 b, string memory errorMessage) internal pure returns (uint256) {\n        require(b <= a, errorMessage);\n        uint256 c = a - b;\n\n        return c;\n    }\n\n    /**\n     * @dev Returns the multiplication of two unsigned integers, reverting on\n     * overflow.\n     *\n     * Counterpart to Solidity's `*` operator.\n     *\n     * Requirements:\n     *\n     * - Multiplication cannot overflow.\n     */\n    function mul(uint256 a, uint256 b) internal pure returns (uint256) {\n        // Gas optimization: this is cheaper than requiring 'a' not being zero, but the\n        // benefit is lost if 'b' is also tested.\n        // See: https://github.com/OpenZeppelin/openzeppelin-contracts/pull/522\n        if (a == 0) {\n            return 0;\n        }\n\n        uint256 c = a * b;\n        require(c / a == b, \"SafeMath: multiplication overflow\");\n\n        return c;\n    }\n\n    /**\n     * @dev Returns the integer division of two unsigned integers. Reverts on\n     * division by zero. The result is rounded towards zero.\n     *\n     * Counterpart to Solidity's `/` operator. Note: this function uses a\n     * `revert` opcode (which leaves remaining gas untouched) while Solidity\n     * uses an invalid opcode to revert (consuming all remaining gas).\n     *\n     * Requirements:\n     *\n     * - The divisor cannot be zero.\n     */\n    function div(uint256 a, uint256 b) internal pure returns (uint256) {\n        return div(a, b, \"SafeMath: division by zero\");\n    }\n\n    /**\n     * @dev Returns the integer division of two unsigned integers. Reverts with custom message on\n     * division by zero. The result is rounded towards zero.\n     *\n     * Counterpart to Solidity's `/` operator. Note: this function uses a\n     * `revert` opcode (which leaves remaining gas untouched) while Solidity\n     * uses an invalid opcode to revert (consuming all remaining gas).\n     *\n     * Requirements:\n     *\n     * - The divisor cannot be zero.\n     */\n    function div(uint256 a, uint256 b, string memory errorMessage) internal pure returns (uint256) {\n        require(b > 0, errorMessage);\n        uint256 c = a / b;\n        // assert(a == b * c + a % b); // There is no case in which this doesn't hold\n\n        return c;\n    }\n\n    /**\n     * @dev Returns the remainder of dividing two unsigned integers. (unsigned integer modulo),\n     * Reverts when dividing by zero.\n     *\n     * Counterpart to Solidity's `%` operator. This function uses a `revert`\n     * opcode (which leaves remaining gas untouched) while Solidity uses an\n     * invalid opcode to revert (consuming all remaining gas).\n     *\n     * Requirements:\n     *\n     * - The divisor cannot be zero.\n     */\n    function mod(uint256 a, uint256 b) internal pure returns (uint256) {\n        return mod(a, b, \"SafeMath: modulo by zero\");\n    }\n\n    /**\n     * @dev Returns the remainder of dividing two unsigned integers. (unsigned integer modulo),\n     * Reverts with custom message when dividing by zero.\n     *\n     * Counterpart to Solidity's `%` operator. This function uses a `revert`\n     * opcode (which leaves remaining gas untouched) while Solidity uses an\n     * invalid opcode to revert (consuming all remaining gas).\n     *\n     * Requirements:\n     *\n     * - The divisor cannot be zero.\n     */\n    function mod(uint256 a, uint256 b, string memory errorMessage) internal pure returns (uint256) {\n        require(b != 0, errorMessage);\n        return a % b;\n    }\n}\n\n/**\n * @dev Contract module that helps prevent reentrant calls to a function.\n *\n * Inheriting from `ReentrancyGuard` will make the {nonReentrant} modifier\n * available, which can be applied to functions to make sure there are no nested\n * (reentrant) calls to them.\n *\n * Note that because there is a single `nonReentrant` guard, functions marked as\n * `nonReentrant` may not call one another. This can be worked around by making\n * those functions `private`, and then adding `external` `nonReentrant` entry\n * points to them.\n *\n * TIP: If you would like to learn more about reentrancy and alternative ways\n * to protect against it, check out our blog post\n * https://blog.openzeppelin.com/reentrancy-after-istanbul/[Reentrancy After Istanbul].\n */\ncontract ReentrancyGuardUpgradeable is Initializable {\n    // Booleans are more expensive than uint256 or any type that takes up a full\n    // word because each write operation emits an extra SLOAD to first read the\n    // slot's contents, replace the bits taken up by the boolean, and then write\n    // back. This is the compiler's defense against contract upgrades and\n    // pointer aliasing, and it cannot be disabled.\n\n    // The values being non-zero value makes deployment a bit more expensive,\n    // but in exchange the refund on every call to nonReentrant will be lower in\n    // amount. Since refunds are capped to a percentage of the total\n    // transaction's gas, it is best to keep them low in cases like this one, to\n    // increase the likelihood of the full refund coming into effect.\n    uint256 private constant _NOT_ENTERED = 1;\n    uint256 private constant _ENTERED = 2;\n\n    uint256 private _status;\n\n    function __ReentrancyGuard_init() internal initializer {\n        __ReentrancyGuard_init_unchained();\n    }\n\n    function __ReentrancyGuard_init_unchained() internal initializer {\n        _status = _NOT_ENTERED;\n    }\n\n    /**\n     * @dev Prevents a contract from calling itself, directly or indirectly.\n     * Calling a `nonReentrant` function from another `nonReentrant`\n     * function is not supported. It is possible to prevent this from happening\n     * by making the `nonReentrant` function external, and make it call a\n     * `private` function that does the actual work.\n     */\n    modifier nonReentrant() {\n        // On the first call to nonReentrant, _notEntered will be true\n        require(_status != _ENTERED, \"ReentrancyGuard: reentrant call\");\n\n        // Any calls to nonReentrant after this point will fail\n        _status = _ENTERED;\n\n        _;\n\n        // By storing the original value once again, a refund is triggered (see\n        // https://eips.ethereum.org/EIPS/eip-2200)\n        _status = _NOT_ENTERED;\n    }\n    uint256[49] private __gap;\n}\n\ncontract Staking is ReentrancyGuardUpgradeable {\n    using SafeMath for uint256;\n\n    uint128 constant private BASE_MULTIPLIER = uint128(1 * 10 ** 18);\n\n    // timestamp for the epoch 1\n    // everything before that is considered epoch 0 which won't have a reward but allows for the initial stake\n    uint256 public epoch1Start;\n\n    // duration of each epoch\n    uint256 public epochDuration;\n\n    // holds the current balance of the user for each token\n    mapping(address => mapping(address => uint256)) private balances;\n\n    struct Pool {\n        uint256 size;\n        bool set;\n    }\n\n    // for each token, we store the total pool size\n    mapping(address => mapping(uint256 => Pool)) private poolSize;\n\n    // a checkpoint of the valid balance of a user for an epoch\n    struct Checkpoint {\n        uint128 epochId;\n        uint128 multiplier;\n        uint256 startBalance;\n        uint256 newDeposits;\n    }\n\n    // balanceCheckpoints[user][token][]\n    mapping(address => mapping(address => Checkpoint[])) private balanceCheckpoints;\n\n    mapping(address => uint128) private lastWithdrawEpochId;\n\n    event Deposit(address indexed user, address indexed tokenAddress, uint256 amount);\n    event Withdraw(address indexed user, address indexed tokenAddress, uint256 amount);\n    event ManualEpochInit(address indexed caller, uint128 indexed epochId, address[] tokens);\n    event EmergencyWithdraw(address indexed user, address indexed tokenAddress, uint256 amount);\n\n    function initialize (uint256 _epoch1Start, uint256 _epochDuration) public initializer {\n        epoch1Start = _epoch1Start; \n        epochDuration = _epochDuration;\n    }\n\n    /*\n     * Stores `amount` of `tokenAddress` tokens for the `user` into the vault\n     */\n    function deposit(address tokenAddress, uint256 amount) public nonReentrant {\n        require(amount > 0, \"Staking: Amount must be > 0\");\n\n        IERC20 token = IERC20(tokenAddress);\n        uint256 allowance = token.allowance(msg.sender, address(this));\n        require(allowance >= amount, \"Staking: Token allowance too small\");\n\n        balances[msg.sender][tokenAddress] = balances[msg.sender][tokenAddress].add(amount);\n\n        token.transferFrom(msg.sender, address(this), amount);\n\n        // epoch logic\n        uint128 currentEpoch = getCurrentEpoch();\n        uint128 currentMultiplier = currentEpochMultiplier();\n\n        if (!epochIsInitialized(tokenAddress, currentEpoch)) {\n            address[] memory tokens = new address[](1);\n            tokens[0] = tokenAddress;\n            manualEpochInit(tokens, currentEpoch);\n        }\n\n        // update the next epoch pool size\n        Pool storage pNextEpoch = poolSize[tokenAddress][currentEpoch + 1];\n        pNextEpoch.size = token.balanceOf(address(this));\n        pNextEpoch.set = true;\n\n        Checkpoint[] storage checkpoints = balanceCheckpoints[msg.sender][tokenAddress];\n\n        uint256 balanceBefore = getEpochUserBalance(msg.sender, tokenAddress, currentEpoch);\n\n        // if there's no checkpoint yet, it means the user didn't have any activity\n        // we want to store checkpoints both for the current epoch and next epoch because\n        // if a user does a withdraw, the current epoch can also be modified and\n        // we don't want to insert another checkpoint in the middle of the array as that could be expensive\n        if (checkpoints.length == 0) {\n            checkpoints.push(Checkpoint(currentEpoch, currentMultiplier, 0, amount));\n\n            // next epoch => multiplier is 1, epoch deposits is 0\n            checkpoints.push(Checkpoint(currentEpoch + 1, BASE_MULTIPLIER, amount, 0));\n        } else {\n            uint256 last = checkpoints.length - 1;\n\n            // the last action happened in an older epoch (e.g. a deposit in epoch 3, current epoch is >=5)\n            if (checkpoints[last].epochId < currentEpoch) {\n                uint128 multiplier = computeNewMultiplier(\n                    getCheckpointBalance(checkpoints[last]),\n                    BASE_MULTIPLIER,\n                    amount,\n                    currentMultiplier\n                );\n                checkpoints.push(Checkpoint(currentEpoch, multiplier, getCheckpointBalance(checkpoints[last]), amount));\n                checkpoints.push(Checkpoint(currentEpoch + 1, BASE_MULTIPLIER, balances[msg.sender][tokenAddress], 0));\n            }\n            // the last action happened in the previous epoch\n            else if (checkpoints[last].epochId == currentEpoch) {\n                checkpoints[last].multiplier = computeNewMultiplier(\n                    getCheckpointBalance(checkpoints[last]),\n                    checkpoints[last].multiplier,\n                    amount,\n                    currentMultiplier\n                );\n                checkpoints[last].newDeposits = checkpoints[last].newDeposits.add(amount);\n\n                checkpoints.push(Checkpoint(currentEpoch + 1, BASE_MULTIPLIER, balances[msg.sender][tokenAddress], 0));\n            }\n            // the last action happened in the current epoch\n            else {\n                if (last >= 1 && checkpoints[last - 1].epochId == currentEpoch) {\n                    checkpoints[last - 1].multiplier = computeNewMultiplier(\n                        getCheckpointBalance(checkpoints[last - 1]),\n                        checkpoints[last - 1].multiplier,\n                        amount,\n                        currentMultiplier\n                    );\n                    checkpoints[last - 1].newDeposits = checkpoints[last - 1].newDeposits.add(amount);\n                }\n\n                checkpoints[last].startBalance = balances[msg.sender][tokenAddress];\n            }\n        }\n\n        uint256 balanceAfter = getEpochUserBalance(msg.sender, tokenAddress, currentEpoch);\n\n        poolSize[tokenAddress][currentEpoch].size = poolSize[tokenAddress][currentEpoch].size.add(balanceAfter.sub(balanceBefore));\n\n        emit Deposit(msg.sender, tokenAddress, amount);\n    }\n\n    /*\n     * Removes the deposit of the user and sends the amount of `tokenAddress` back to the `user`\n     */\n    function withdraw(address tokenAddress, uint256 amount) public nonReentrant {\n        require(balances[msg.sender][tokenAddress] >= amount, \"Staking: balance too small\");\n\n        balances[msg.sender][tokenAddress] = balances[msg.sender][tokenAddress].sub(amount);\n\n        IERC20 token = IERC20(tokenAddress);\n        token.transfer(msg.sender, amount);\n\n        // epoch logic\n        uint128 currentEpoch = getCurrentEpoch();\n\n        lastWithdrawEpochId[tokenAddress] = currentEpoch;\n\n        if (!epochIsInitialized(tokenAddress, currentEpoch)) {\n            address[] memory tokens = new address[](1);\n            tokens[0] = tokenAddress;\n            manualEpochInit(tokens, currentEpoch);\n        }\n\n        // update the pool size of the next epoch to its current balance\n        Pool storage pNextEpoch = poolSize[tokenAddress][currentEpoch + 1];\n        pNextEpoch.size = token.balanceOf(address(this));\n        pNextEpoch.set = true;\n\n        Checkpoint[] storage checkpoints = balanceCheckpoints[msg.sender][tokenAddress];\n        uint256 last = checkpoints.length - 1;\n\n        // note: it's impossible to have a withdraw and no checkpoints because the balance would be 0 and revert\n\n        // there was a deposit in an older epoch (more than 1 behind [eg: previous 0, now 5]) but no other action since then\n        if (checkpoints[last].epochId < currentEpoch) {\n            checkpoints.push(Checkpoint(currentEpoch, BASE_MULTIPLIER, balances[msg.sender][tokenAddress], 0));\n\n            poolSize[tokenAddress][currentEpoch].size = poolSize[tokenAddress][currentEpoch].size.sub(amount);\n        }\n        // there was a deposit in the `epochId - 1` epoch => we have a checkpoint for the current epoch\n        else if (checkpoints[last].epochId == currentEpoch) {\n            checkpoints[last].startBalance = balances[msg.sender][tokenAddress];\n            checkpoints[last].newDeposits = 0;\n            checkpoints[last].multiplier = BASE_MULTIPLIER;\n\n            poolSize[tokenAddress][currentEpoch].size = poolSize[tokenAddress][currentEpoch].size.sub(amount);\n        }\n        // there was a deposit in the current epoch\n        else {\n            Checkpoint storage currentEpochCheckpoint = checkpoints[last - 1];\n\n            uint256 balanceBefore = getCheckpointEffectiveBalance(currentEpochCheckpoint);\n\n            // in case of withdraw, we have 2 branches:\n            // 1. the user withdraws less than he added in the current epoch\n            // 2. the user withdraws more than he added in the current epoch (including 0)\n            if (amount < currentEpochCheckpoint.newDeposits) {\n                uint128 avgDepositMultiplier = uint128(\n                    balanceBefore.sub(currentEpochCheckpoint.startBalance).mul(BASE_MULTIPLIER).div(currentEpochCheckpoint.newDeposits)\n                );\n\n                currentEpochCheckpoint.newDeposits = currentEpochCheckpoint.newDeposits.sub(amount);\n\n                currentEpochCheckpoint.multiplier = computeNewMultiplier(\n                    currentEpochCheckpoint.startBalance,\n                    BASE_MULTIPLIER,\n                    currentEpochCheckpoint.newDeposits,\n                    avgDepositMultiplier\n                );\n            } else {\n                currentEpochCheckpoint.startBalance = currentEpochCheckpoint.startBalance.sub(\n                    amount.sub(currentEpochCheckpoint.newDeposits)\n                );\n                currentEpochCheckpoint.newDeposits = 0;\n                currentEpochCheckpoint.multiplier = BASE_MULTIPLIER;\n            }\n\n            uint256 balanceAfter = getCheckpointEffectiveBalance(currentEpochCheckpoint);\n\n            poolSize[tokenAddress][currentEpoch].size = poolSize[tokenAddress][currentEpoch].size.sub(balanceBefore.sub(balanceAfter));\n\n            checkpoints[last].startBalance = balances[msg.sender][tokenAddress];\n        }\n\n        emit Withdraw(msg.sender, tokenAddress, amount);\n    }\n\n    /*\n     * manualEpochInit can be used by anyone to initialize an epoch based on the previous one\n     * This is only applicable if there was no action (deposit/withdraw) in the current epoch.\n     * Any deposit and withdraw will automatically initialize the current and next epoch.\n     */\n    function manualEpochInit(address[] memory tokens, uint128 epochId) public {\n        require(epochId <= getCurrentEpoch(), \"can't init a future epoch\");\n\n        for (uint i = 0; i < tokens.length; i++) {\n            Pool storage p = poolSize[tokens[i]][epochId];\n\n            if (epochId == 0) {\n                p.size = uint256(0);\n                p.set = true;\n            } else {\n                require(!epochIsInitialized(tokens[i], epochId), \"Staking: epoch already initialized\");\n                require(epochIsInitialized(tokens[i], epochId - 1), \"Staking: previous epoch not initialized\");\n\n                p.size = poolSize[tokens[i]][epochId - 1].size;\n                p.set = true;\n            }\n        }\n\n        emit ManualEpochInit(msg.sender, epochId, tokens);\n    }\n\n    function emergencyWithdraw(address tokenAddress) public {\n        require((getCurrentEpoch() - lastWithdrawEpochId[tokenAddress]) >= 10, \"At least 10 epochs must pass without success\");\n\n        uint256 totalUserBalance = balances[msg.sender][tokenAddress];\n        require(totalUserBalance > 0, \"Amount must be > 0\");\n\n        balances[msg.sender][tokenAddress] = 0;\n\n        IERC20 token = IERC20(tokenAddress);\n        token.transfer(msg.sender, totalUserBalance);\n\n        emit EmergencyWithdraw(msg.sender, tokenAddress, totalUserBalance);\n    }\n\n    /*\n     * Returns the valid balance of a user that was taken into consideration in the total pool size for the epoch\n     * A deposit will only change the next epoch balance.\n     * A withdraw will decrease the current epoch (and subsequent) balance.\n     */\n    function getEpochUserBalance(address user, address token, uint128 epochId) public view returns (uint256) {\n        Checkpoint[] storage checkpoints = balanceCheckpoints[user][token];\n\n        // if there are no checkpoints, it means the user never deposited any tokens, so the balance is 0\n        if (checkpoints.length == 0 || epochId < checkpoints[0].epochId) {\n            return 0;\n        }\n\n        uint min = 0;\n        uint max = checkpoints.length - 1;\n\n        // shortcut for blocks newer than the latest checkpoint == current balance\n        if (epochId >= checkpoints[max].epochId) {\n            return getCheckpointEffectiveBalance(checkpoints[max]);\n        }\n\n        // binary search of the value in the array\n        while (max > min) {\n            uint mid = (max + min + 1) / 2;\n            if (checkpoints[mid].epochId <= epochId) {\n                min = mid;\n            } else {\n                max = mid - 1;\n            }\n        }\n\n        return getCheckpointEffectiveBalance(checkpoints[min]);\n    }\n\n    /*\n     * Returns the amount of `token` that the `user` has currently staked\n     */\n    function balanceOf(address user, address token) public view returns (uint256) {\n        return balances[user][token];\n    }\n\n    /*\n     * Returns the id of the current epoch derived from block.timestamp\n     */\n    function getCurrentEpoch() public view returns (uint128) {\n        if (block.timestamp < epoch1Start) {\n            return 0;\n        }\n\n        return uint128((block.timestamp - epoch1Start) / epochDuration + 1);\n    }\n\n    /*\n     * Returns the total amount of `tokenAddress` that was locked from beginning to end of epoch identified by `epochId`\n     */\n    function getEpochPoolSize(address tokenAddress, uint128 epochId) public view returns (uint256) {\n        // Premises:\n        // 1. it's impossible to have gaps of uninitialized epochs\n        // - any deposit or withdraw initialize the current epoch which requires the previous one to be initialized\n        if (epochIsInitialized(tokenAddress, epochId)) {\n            return poolSize[tokenAddress][epochId].size;\n        }\n\n        // epochId not initialized and epoch 0 not initialized => there was never any action on this pool\n        if (!epochIsInitialized(tokenAddress, 0)) {\n            return 0;\n        }\n\n        // epoch 0 is initialized => there was an action at some point but none that initialized the epochId\n        // which means the current pool size is equal to the current balance of token held by the staking contract\n        IERC20 token = IERC20(tokenAddress);\n        return token.balanceOf(address(this));\n    }\n\n    /*\n     * Returns the percentage of time left in the current epoch\n     */\n    function currentEpochMultiplier() public view returns (uint128) {\n        uint128 currentEpoch = getCurrentEpoch();\n        uint256 currentEpochEnd = epoch1Start + currentEpoch * epochDuration;\n        uint256 timeLeft = currentEpochEnd - block.timestamp;\n        uint128 multiplier = uint128(timeLeft * BASE_MULTIPLIER / epochDuration);\n\n        return multiplier;\n    }\n\n    function computeNewMultiplier(uint256 prevBalance, uint128 prevMultiplier, uint256 amount, uint128 currentMultiplier) public pure returns (uint128) {\n        uint256 prevAmount = prevBalance.mul(prevMultiplier).div(BASE_MULTIPLIER);\n        uint256 addAmount = amount.mul(currentMultiplier).div(BASE_MULTIPLIER);\n        uint128 newMultiplier = uint128(prevAmount.add(addAmount).mul(BASE_MULTIPLIER).div(prevBalance.add(amount)));\n\n        return newMultiplier;\n    }\n\n    /*\n     * Checks if an epoch is initialized, meaning we have a pool size set for it\n     */\n    function epochIsInitialized(address token, uint128 epochId) public view returns (bool) {\n        return poolSize[token][epochId].set;\n    }\n\n    function getCheckpointBalance(Checkpoint memory c) internal pure returns (uint256) {\n        return c.startBalance.add(c.newDeposits);\n    }\n\n    function getCheckpointEffectiveBalance(Checkpoint memory c) internal pure returns (uint256) {\n        return getCheckpointBalance(c).mul(c.multiplier).div(BASE_MULTIPLIER);\n    }\n}",
  "sourcePath": "/home/siddharth.lalwani/FmGallery_truffle/contracts/Staking.sol",
  "compiler": {
    "name": "solc",
    "version": "0.6.0+commit.26b70077.Emscripten.clang"
  },
  "schemaVersion": "3.3.4",
  "updatedAt": "2021-03-01T08:53:48.517Z",
  "networkType": "ethereum",
  "devdoc": {
    "methods": {}
  },
  "userdoc": {
    "methods": {}
  }
}